:100000000C94ED000C9415010C9415010C94150141
:100010000C9415010C9415010C9415010C94150108
:100020000C9415010C9415010C94D80E0C946A0DC7
:100030000C9415010C9415010C9415010C941501E8
:100040000C9415010C9415010C9415010C941501D8
:100050000C9415010C9415010C9415010C941906BF
:100060000C9415010C9415010C9415010C941501B8
:100070000C9415010C9415010C9415010C941501A8
:100080000C9415010C9415010C9415010C94150198
:100090000C9415010C9415010C9415010C94150188
:1000A0000C9415010C94F6040C9415013A073D07C5
:1000B0002C07300736075E075E075E0741074507D6
:1000C00049074F0753075E07590700000002000960
:1000D0000F0000030401000C0000000000000000FD
:1000E0000000000000000000000408020110408031
:1000F000401020408040800802040180402010020F
:10010000011080102040402004040404040304056E
:1001100002020202040302020202060606060606A4
:100120000404020202040400000000230026002947
:10013000002C002F0000000000250028002B002EBE
:1001400000310000000000240027002A002D0030AC
:1001500000080B0002020201000904000001020273
:1001600000000524001001052401010104240206F9
:100170000524060001070581031000400904010061
:10018000020A000000070502024000000705830282
:1001900040000012010002EF0201404123368000BE
:1001A0000101020301120100020000004041233658
:1001B0008000010102030141726475696E6F204C79
:1001C0004C430041726475696E6F204C656F6E61BF
:1001D00072646F0004030904290911241FBECFEFC4
:1001E000DAE0DEBFCDBF11E0A0E0B1E0EAEBF4E27F
:1001F00002C005900D92A43AB107D9F722E0A4EA13
:10020000B1E001C01D92A538B207E1F711E0CAEDD7
:10021000D1E004C02297FE010E945712C83DD107C9
:10022000C9F70E9447090C945B120C940000CF920E
:10023000DF92EF92FF920F931F93E82FF92F05C0E3
:10024000015011092109310961F190819623941718
:10025000B9F305C0015011092109310911F190814B
:1002600096239413F7CFC12CD12CE12CF12C0AC08A
:100270008FEFC81AD80AE80AF80A0C151D052E05D2
:100280003F0579F080818623841791F36C2D7D2DB5
:100290008E2D9F2D1F910F91FF90EF90DF90CF90AB
:1002A000089560E070E080E090E01F910F91FF9072
:1002B000EF90DF90CF9008956F927F928F929F92F0
:1002C000AF92BF92CF92DF92EF92FF920F931F9364
:1002D000CF93DF935C018B01C0E0D0E0612C80E51F
:1002E000782E93EC892E27E4922ECA15DB05A4F410
:1002F000F801C190D190E190F1908F01A701960192
:10030000B301C4010E94791087FF02C06301740128
:10031000219636014701E9CFB301C401DF91CF91A6
:100320001F910F91FF90EF90DF90CF90BF90AF9013
:100330009F908F907F906F9008958F929F92AF9231
:10034000BF92CF92DF92EF92FF921F93CF93DF93F2
:10035000CCEBD1E013E030E8832E3FE4932E33EC76
:10036000A32E37E4B32E60E082E00E9498070E943B
:1003700063066093B4017093B5018093B6019093C6
:10038000B7010E946306C090B401D090B501E0901F
:10039000B601F090B7016C197D098E099F09623092
:1003A00071058105910568F361E082E00E9498077C
:1003B0000E9463066093B4017093B5018093B60107
:1003C0009093B7010E946306C090B401D090B5012C
:1003D000E090B601F090B7016C197D098E099F0974
:1003E0006A3071058105910568F360E082E00E9442
:1003F000980720E231EA47E050E061E0812F0E9457
:10040000F7070E94161120E030E048E652E40E940F
:100410007D106B017C016093B8017093B9018093EA
:10042000BA019093BB0120E030E0A9010E9479104D
:10043000811105C088829982AA82BB8204C0C882C9
:10044000D982EA82FB82499159916991799122E09E
:1004500030E08DE192E00E94270B69E171E08DE1CF
:1004600092E00E9470091F5F183009F07CCF8DE187
:1004700092E00E9479090E946306AB01BC012AE068
:1004800030E08DE192E0DF91CF911F91FF90EF90EE
:10049000DF90CF90BF90AF909F908F900C942A0ADE
:1004A00061E08DE00E94980760E08CE00C94980772
:1004B00061E08CE00E94980760E08DE00C94980762
:1004C0000E94A8048091A6019091A7010197D1F400
:1004D00080910001909101010197A1F46091B00118
:1004E0007091B1018091B2019091B3016093AC0120
:1004F0007093AD018093AE019093AF0140E652E05E
:100500000E945D048091000190910101019789F49E
:1005100082E090E090930101809300010E945002DC
:100520006091AC017091AD018091AE019091AF01ED
:100530001AC081E090E090930101809300010E9435
:1005400058026091AC017091AD018091AE01909123
:10055000AF010E94181121E73DE34AE85FE30E94E2
:10056000CC110E94EA1040E652E00E945D040C9417
:10057000950460E08CE00E94980760E08DE00C94A8
:1005800098078BE00E94CE07019731F08AE00E9425
:10059000CE07019781F51DC06AE070E080E090E031
:1005A0000E9492068BE00E94CE07019761F40E94A0
:1005B000A8040E94580262E370E080E090E00E948C
:1005C00092060E94B9028BE00E94CE070197D9F3F0
:1005D000DDCF6AE070E080E090E00E9492068AE061
:1005E0000E94CE07019711F40E9495048AE00E94B0
:1005F000CE070197D9F389E00E94CE07019781F4D5
:100600006AE070E080E090E00E94920689E00E943B
:10061000CE07019761F089E00E94CE070197D9F3D8
:1006200088E00E94CE07019709F046C025C080915E
:10063000B0019091B101A091B201B091B3018039A4
:100640009140A105B10529F488EE93E0A0E0B0E067
:1006500004C080E991E0A0E0B0E08093B001909305
:10066000B101A093B201B093B30181E090E0909307
:10067000A7018093A601CFCF6AE070E080E090E010
:100680000E94920688E00E94CE078130910579F49D
:100690002091A4013091A501232B29F49093A50169
:1006A0008093A40104C01092A5011092A40188E0D7
:1006B0000E94CE070197D9F30895CF9340ED57E0FC
:1006C00060E070E08DED91E00E948C0520E032EC5E
:1006D00041E050E06DE172E08DED91E00E94450552
:1006E0008DED91E00E9442056BE171E080910E0278
:1006F00090910F020E9470096AE070E080E090E043
:100700000E94920641E060E08DED91E00E94FE05BE
:10071000C3E060E08C2F0E945F07CF5FC830C9F74D
:1007200061E082E00E945F0761E08CE00E945F0769
:1007300061E08DE00E945F0760E08BE00E945F0750
:1007400080E991E0A0E0B0E08093B0019093B10126
:10075000A093B201B093B30140E652E060E971E0CA
:1007600080E090E00E945D048091B0019091B10121
:10077000A091B201B091B3018093AC019093AD010F
:10078000A093AE01B093AF01CF9108950F931F9343
:100790000E9463060091A8011091A9012091AA016D
:1007A0003091AB01601B710B820B930B683E734061
:1007B0008105910508F449C00E9463066093A80171
:1007C0007093A9018093AA019093AB0120E030E0DF
:1007D00048EC52E4609102017091030180910401A0
:1007E000909105010E9479104091B0015091B101A2
:1007F0006091B2017091B30187FF10C04039514040
:100800006105710511F181E090E09093A70180935B
:10081000A60180E991E0A0E0B0E00FC0483E53405F
:100820006105710591F081E090E09093A7018093BC
:10083000A60188EE93E0A0E0B0E08093B001909331
:10084000B101A093B201B093B3011F910F9108952C
:100850000E94C1028091A4019091A501019791F499
:100860000E949D016CEB71E085E090E00E945C01CC
:10087000609302017093030180930401909305013A
:100880000E94C6038DE192E00E944D08892BA1F0E1
:100890008DE192E00E945D08813671F461E08DE0A7
:1008A0000E94980764EF71E080E090E00E94920659
:1008B00060E08DE00C94980708956115710581053D
:1008C000910569F481E090E0A0E0B0E08093D90167
:1008D0009093DA01A093DB01B093DC0108C0609330
:1008E000D9017093DA018093DB019093DC0150937E
:1008F000D8014093D7011092C1001092C00010920D
:10090000C2001092C3001092C40088E48093C1001A
:100910008CE790E09093D1018093D0018091D00139
:100920009091D1018093D10008951092D30110923B
:10093000D4011092D5011092D6011092D20184E018
:1009400089BB1092BF001092BE0080937200089580
:100950001092720008958091D3019091D401A091DA
:10096000D501B091D6010196A11DB11D8093D3018F
:100970009093D401A093D501B093D6018091D30177
:100980009091D401A091D501B091D6014091D901A7
:100990005091DA016091DB017091DC0184179507B9
:1009A000A607B70710F18091D20181111EC081E026
:1009B0008093D2018091D3019091D401A091D5016F
:1009C000B091D601841B950BA60BB70B8093D30176
:1009D0009093D401A093D501B093D601E091D701B3
:1009E000F091D80109951092D20108951F920F92AB
:1009F0000FB60F9211242F933F934F935F936F93F2
:100A00007F938F939F93AF93BF93EF93FF930E9436
:100A1000AB04FF91EF91BF91AF919F918F917F9127
:100A20006F915F914F913F912F910F900FBE0F905B
:100A30001F9018950F931F93CF93DF93EC016623BC
:100A400059F00E94630669837A838B839C83DF91CC
:100A5000CF911F910F9108950E94630609811A8119
:100A60002B813C81601B710B820B930B62337105F0
:100A70008105910530F763E070E080E090E00E942E
:100A80009206EACF60E00C941A05CF92DF92EF92C3
:100A9000FF920F931F93CF93DF9300D000D0CDB779
:100AA000DEB78C017B01FC0172AB61AB8BE1C82E20
:100AB000D12CC70129833A834B835C830E941A0996
:100AC00029813A814B815C81811113C0F1E0CF1AF9
:100AD000D10879F064E670E080E090E029833A8301
:100AE0004B835C830E9492065C814B813A81298111
:100AF000E0CFBA01A901F80181A992A90F900F9046
:100B00000F900F90DF91CF911F910F91FF90EF9079
:100B1000DF90CF900C941409FC0113AA14AA15AA13
:100B200016AA1182128213821482411551056105A1
:100B3000710521F0CB01BA010C94920608951F9320
:100B4000CF93DF93EC01162F6DE271E089A99AA98A
:100B50000E9470094AE050E0612F89A99AA90E9479
:100B6000230A64E371E089A99AA90E94700962E3EB
:100B700070E080E090E0DF91CF911F910C9492069D
:100B80001F93CF93DF93EC01162F8D81882389F17A
:100B900089A99AA9DC01ED91FC910480F581E02DF1
:100BA0000995892BA9F307C02637310519F1283596
:100BB000310509F41D8289A99AA9DC01ED91FC9106
:100BC0000480F581E02D09951816190694F489A979
:100BD0009AA9DC01ED91FC910680F781E02D099541
:100BE0009C01332723363105F9F6612FCE010E948F
:100BF0009F0583E6DF91CF911F9108950F931F9377
:100C0000CF93DF931F92CDB7DEB78C01662349F0F7
:100C100081E0F801858360E0C80149830E94C00536
:100C20004981F80145830F90DF91CF911F910F917A
:100C300008951F920F920FB60F9211242F933F9396
:100C40008F939F93AF93BF9380911502909116025B
:100C5000A0911702B09118023091140223E0230FE3
:100C60002D3720F40196A11DB11D05C026E8230FE4
:100C70000296A11DB11D209314028093150290933A
:100C80001602A0931702B093180280911902909156
:100C90001A02A0911B02B0911C020196A11DB11D68
:100CA0008093190290931A02A0931B02B0931C0226
:100CB000BF91AF919F918F913F912F910F900FBE58
:100CC0000F901F9018952FB7F894609115027091AE
:100CD000160280911702909118022FBF08953FB716
:100CE000F8948091190290911A02A0911B02B09180
:100CF0001C0226B5A89B05C02F3F19F00196A11D27
:100D0000B11D3FBF6627782F892F9A2F620F711D63
:100D1000811D911D42E0660F771F881F991F4A951C
:100D2000D1F708958F929F92AF92BF92CF92DF92A8
:100D3000EF92FF926B017C010E946F064B015C01F8
:100D4000C114D104E104F104F1F00E94780F0E9473
:100D50006F06681979098A099B09683E7340810505
:100D6000910570F321E0C21AD108E108F10888EE7C
:100D7000880E83E0981EA11CB11CC114D104E104AB
:100D8000F10429F7DDCFFF90EF90DF90CF90BF9077
:100D9000AF909F908F900895789484B5826084BDC1
:100DA00084B5816084BD85B5826085BD85B581606F
:100DB00085BDEEE6F0E0808181608083E1E8F0E0CF
:100DC0001082808182608083808181608083E0E8FE
:100DD000F0E0808181608083E1E9F0E080818260E1
:100DE0008083808181608083E0E9F0E080818160A0
:100DF0008083E1ECF0E08081846080838081826088
:100E00008083808181608083E3ECF0E08081816079
:100E10008083E0ECF0E0808182608083E2ECF0E0AF
:100E2000808181608083EAE7F0E080818460808354
:100E300080818260808380818160808380818068FE
:100E40008083089590E0FC013197EF30F105B0F513
:100E5000EA5AFF4F0C945512809180008F7703C09F
:100E6000809180008F7D8093800008958091800024
:100E7000877FF9CF84B58F7702C084B58F7D84BD1D
:100E80000895809190008F7707C0809190008F7DAA
:100E900003C080919000877F809390000895809197
:100EA000C0008F7703C08091C0008F7D8093C00009
:100EB00008958091C200877F8093C2000895CF93E8
:100EC000DF9390E0FC01E751FF4F2491FC01E85FC4
:100ED000FE4F8491882349F190E0880F991FFC010F
:100EE000ED5BFE4FA591B4918B5C9E4FFC01C591CB
:100EF000D4919FB7611108C0F8948C9120958223FA
:100F00008C93888182230AC0623051F4F8948C91CA
:100F1000322F309583238C938881822B888304C061
:100F2000F8948C91822B8C939FBFDF91CF91089581
:100F30000F931F93CF93DF931F92CDB7DEB7282F68
:100F400030E0F901E653FF4F8491F901E751FF4F7B
:100F50001491F901E85FFE4F04910023C9F0882342
:100F600021F069830E9422076981E02FF0E0EE0FF3
:100F7000FF1FEB5CFE4FA591B4919FB7F8948C9145
:100F8000611103C01095812301C0812B8C939FBFF9
:100F90000F90DF91CF911F910F910895CF93DF9321
:100FA000282F30E0F901E653FF4F8491F901E75112
:100FB000FF4FD491F901E85FFE4FC491CC2391F02B
:100FC00081110E942207EC2FF0E0EE0FFF1FE95D78
:100FD000FE4FA591B4912C912D2381E090E021F456
:100FE00080E002C080E090E0DF91CF9108950F9300
:100FF0001F93762F90E0FC01E751FF4F6491FC01B5
:10100000E85FFE4FE4917111762FF0E0EE0FFF1FC5
:10101000E95DFE4F8591949189019A013F70472FB8
:101020000E941701611571058105910531F06F5F0F
:101030007F4F8F4F9F4F9F7003C060E070E0CB01E8
:101040001F910F910895CF93DF931F92CDB7DEB715
:101050006983DC01ED91FC910280F381E02D41E098
:1010600050E0BE016F5F7F4F09950F90DF91CF91E8
:101070000895CF93DF93EC018C859D8597FF05C084
:1010800082E00E943A0C9D878C878C859D85DF913C
:10109000CF91089583E00C94CE0EFC018485958554
:1010A00097FD06C082E00E94E20B90E00196089551
:1010B00082E00E94E20B90E00895FC018485958512
:1010C00097FD05C02FEF3FEF35872487089582E015
:1010D0000C943A0CCF93DF93EC018091110188239B
:1010E00031F083E00E946B0C1816190634F081E091
:1010F00090E09B838A8380E090E0DF91CF91089518
:10110000FC0120812E5F208342E450E061E571E024
:1011100080E80C94060DFC0121818081813A59F40C
:10112000213209F04BC047E050E06AE071E080E016
:101130000E94060D5EC0813209F040C0233289F45E
:10114000838190E0982F88273281832BA0E0B0E044
:101150008093060190930701A0930801B0930901C1
:101160000FC0203239F467E070E08AE091E00E941D
:10117000370D09C0223221F482818093110103C00E
:101180002D7F2032B1F580916D02811103C0E0E026
:10119000F8E002C0EEEFFAE080910A0190910B01B5
:1011A000A0910C01B0910D01803B9440A105B105C7
:1011B00011F58091110180FF03C01DC080E00895EA
:1011C000EE3F2AE0F20731F0808191819093FF0A8F
:1011D0008093FE0A87E797E7918380832BE088E17D
:1011E00090E00FB6F894A895809360000FBE20930E
:1011F000600081E0089588E10FB6F8948093600064
:10120000109260000FBEA895EE3F8AE0F80739F013
:101210008091FE0A9091FF0A91838083EACF109219
:10122000FF0A1092FE0AE5CF2FEF3FEFFC01358752
:1012300024870895CF93C09111016AE070E080E0A7
:1012400090E00E94920681E0C11101C080E0CF9140
:1012500008951092200210921F0288EE93E0A0E001
:10126000B0E08093210290932202A0932302B093D6
:10127000240289E891E090931E0280931D028FEF73
:101280009FEF90932A0280932902089508950E9467
:10129000CC060E9446098EE692E00E945B0F0E94F7
:1012A0005D03C0E0D0E00E9428042097E1F30E9493
:1012B0000000F9CF6115710581F0DB010D90002070
:1012C000E9F7AD0141505109461B570BDC01ED9187
:1012D000FC910280F381E02D099480E090E0089574
:1012E0000C945A09DC01ED91FC910190F081E02D04
:1012F00009946AE371E00C945A098F929F92AF921D
:10130000BF92DF92EF92FF920F931F93CF93DF93E1
:10131000CDB7DEB7A1970FB6F894DEBF0FBECDBF35
:101320007C01F42FD52ECB0119A2223008F42AE03B
:101330008E010F5D1F4F822E912CA12CB12C6F2F8F
:101340007D2DA50194010E943312F22FD32ECA01E4
:10135000015011096A3014F4E0E301C0E7E3E60F3D
:10136000D801EC93232B242B252B49F7B801C70177
:101370000E945A09A1960FB6F894DEBF0FBECDBFEA
:10138000DF91CF911F910F91FF90EF90DF90BF9071
:10139000AF909F908F900895CF92DF92EF92FF923F
:1013A0000F931F93CF93DF93EC016A017B0121150B
:1013B000310579F4E881F9810190F081E02D642F05
:1013C000DF91CF911F910F91FF90EF90DF90CF9021
:1013D00009942A303105E9F477FF1AC06DE20E94C2
:1013E00072098C0144275527BA014C195D096E0911
:1013F0007F092AE0CE010E947D09800F911FDF91B5
:10140000CF911F910F91FF90EF90DF90CF900895B3
:101410002AE0B701A601CE01DF91CF911F910F9174
:10142000FF90EF90DF90CF900C947D09211531054E
:1014300041F4DC01ED91FC910190F081E02D642FED
:1014400009940C947D099A01462F50E060E070E009
:101450000C94160A0F931F93CF93DF93EC010E9415
:10146000160A8C01CE010E947909800F911FDF912D
:10147000CF911F910F9108954F925F926F927F923B
:101480008F929F92AF92BF92CF92DF92EF92FF9294
:101490000F931F93CF93DF93EC016A017B01B22E70
:1014A0009A01AB01C701B6010E942F12882319F0DF
:1014B00065E971E027C026013701E89477F82FEF3E
:1014C0003FEF4FE75FE7C301B2010E942F12811186
:1014D0000DC02FEF3FEF4FE75FE7C301B2010E945E
:1014E000791018161CF469E971E00CC02FEF3FEF7A
:1014F0004FE75FE4C701B6010E94C8111816ACF4AB
:101500006DE971E0CE01DF91CF911F910F91FF90B6
:10151000EF90DF90CF90BF90AF909F908F907F9093
:101520006F905F904F900C945A092FEF3FEF4FE769
:101530005FECC701B6010E94791087FDE1CF20E082
:1015400030E0A901C701B6010E94791087FF0AC0E7
:101550006DE2CE010E9472098C01F7FAF094F7F85F
:10156000F09402C000E010E0A12C60E070E080E0A8
:101570009FE3AB1441F020E030E040E251E40E94F0
:101580007D10A394F6CF9B01AC01C701B6010E9468
:1015900015106B017C010E94EA102B013C010E9496
:1015A00016119B01AC01C701B6010E9414106B011A
:1015B0007C012AE0B301A201CE010E947D09080F3F
:1015C000191FBB2039F061EA71E0CE010E945A096F
:1015D000080F191F7B2C772041F120E030E040E21A
:1015E00051E4C701B6010E94CC116B017C010E943D
:1015F000E5104B01AA2497FCA094BA2C2AE030E015
:10160000B501A401CE010E94CC09080F191FC50124
:10161000B4010E9418119B01AC01C701B6010E94E0
:1016200014106B017C017A94D6CFC801DF91CF9161
:101630001F910F91FF90EF90DF90CF90BF90AF90F0
:101640009F908F907F906F905F904F9008950C9433
:101650003C0A615030F02091F100FC01208301969A
:10166000F8CF289884E6809377020895409172021B
:10167000509173022091700230917102421753070A
:10168000B4F49091E8009570E1F39091E80092FD38
:1016900019C08093F10080917202909173020196BB
:1016A0008F739927892B19F48EEF8093E80080912E
:1016B000720290917302019690937302809372026A
:1016C00081E0089580E00895CF92DF92EF92FF923B
:1016D0000F931F93CF93DF931F92CDB7DEB7082FE1
:1016E000162FF42E862F880F8E5F99830E94360B5B
:1016F00083E00E94360BE02EC02E9981D92E8C2DCE
:101700008E19811798F4F601F7FE02C0849101C08A
:1017100080810E94360B082F80E00E94360B8023C8
:10172000FFEFCF1ADF0A8111EACF01C081E00F90ED
:10173000DF91CF911F910F91FF90EF90DF90CF90AD
:1017400008958091D70081608093D70080EA8093CC
:10175000D80089B5806189BD89B5826089BD09B429
:1017600000FEFDCF61E070E080E090E00E94920614
:101770008091D8008F7C80618093D8008091E000B8
:10178000807F8093E0000895CF93DF931F92CDB7C1
:10179000DEB71982CE0101960E9480080E940010D7
:1017A000BE016F5F7F4F0E94790F89810F90DF919B
:1017B000CF9108952FB7FC012083F8946770609350
:1017C000E9000895CF93DF931F92CDB7DEB7682F5E
:1017D000CE0101960E94DA0B8091F20099819FBFA1
:1017E0000F90DF91CF910895FF920F931F93CF93A6
:1017F000DF9300D0CDB7DEB7F62E8A019091760246
:10180000992311F057FF03C08FEF9FEF2BC0682F74
:10181000CE0101967A830E94DA0B8091F20090E06B
:10182000A8017A81801791070CF4AC01EF2DF72FF6
:10183000F40E84E6FE1639F0289880937702909192
:10184000F1009193F7CF4115510521F08091F200FD
:10185000882321F089818FBFCA0104C08BE6809361
:10186000E800F8CF0F900F90DF91CF911F910F916B
:10187000FF900895CF93DF931F92CDB7DEB741E07D
:1018800050E0BE016F5F7F4F0E94F40B019719F487
:10189000898190E002C08FEF9FEF0F90DF91CF9191
:1018A0000895CF93DF931F92CDB7DEB7682FCE0197
:1018B00001960E94DA0B9091E800892F807295FFC3
:1018C00004C09091F20080E4891B99819FBF0F9022
:1018D000DF91CF9108956F927F928F929F92AF92F6
:1018E000BF92CF92DF92EF92FF920F931F93CF930D
:1018F000DF931F92CDB7DEB7782E7B01C42EB52EB5
:1019000080917602882369F0042F152F8AEFD82E54
:10191000872D8072982E9AE3A92E872D8074882EA9
:1019200011C08FEF9FEF57C0872D0E94510C682E7A
:1019300081110CC0DA94A9F361E070E080E090E0DE
:101940000E9492060115110579F73BC0282F30E05F
:10195000021713070CF4602E672DCE0101960E942A
:10196000DA0B8091E80085FF29C0262D30E0021BAC
:10197000130B992039F06A948FEF6816B1F010922A
:10198000F100F9CFF701862D77FE07C0815058F09E
:1019900094919093F1003196F9CF815020F091917C
:1019A0009093F100FACFE20EF31E8091E80085FFDC
:1019B0000FC00115110511F481100AC089818FBF74
:1019C000C1CF5D9884E6809378028C2D9B2D03C057
:1019D000A092E800F3CF0F90DF91CF911F910F916C
:1019E000FF90EF90DF90CF90BF90AF909F908F903F
:1019F0007F906F9008951092E900109273021092F8
:101A0000720290937102809370020895CF92DF92D8
:101A1000FF920F931F93CF93DF9300D0CDB7DEB724
:101A2000F82E8A016B0101151105B1F0F601F7FEE0
:101A300002C0849101C0808149835A830E94360B81
:101A400001501109FFEFCF1ADF0A49815A81811134
:101A5000EACF8FEF9FEF01C0CA010F900F90DF9187
:101A6000CF911F910F91FF90DF90CF900895BF927B
:101A7000CF92DF92EF92FF920F931F93CF93DF935A
:101A80006C018B01EB013BEFB32E2097C1F07E017F
:101A9000C134D1051CF020E4E22EF12C8091E80045
:101AA00082FFFCCFC8018C1B9D0B6E2D8C0D9D1DE4
:101AB0000E94290BB092E800CE19DF09E6CFC801D9
:101AC000DF91CF911F910F91FF90EF90DF90CF901A
:101AD000BF9008951F920F920FB60F921124DF92BC
:101AE000EF92FF920F931F932F933F934F935F9328
:101AF0006F937F938F939F93AF93BF93EF93FF93D6
:101B0000CF93DF93CDB7DEB76C97DEBFCDBF10921A
:101B1000E9008091E80083FF23C168E0CE0145968B
:101B20000E94290B82EF8093E8003D8937FF05C0B2
:101B30008091E80080FFFCCF03C08EEF8093E80027
:101B4000832F807609F0F0C02E894F89D88C21111F
:101B50000CC0303829F4809175028093F10002C0E6
:101B60001092F1001092F100F4C0842F90E09D29B2
:101B7000213049F43111EDC0019709F0EAC080919C
:101B800075028D7F0AC0233059F43111E2C00197EC
:101B900009F0DFC080917502826080937502D9C020
:101BA000253041F48091E80080FFFCCF40684093ED
:101BB000E300CFC0263009F08DC0EB8CFC8C22E016
:101BC000D2122CC080E090E00E94FB0C0E94C40B5B
:101BD00099E08E010F5F1F4FF801292F11922A956E
:101BE000E9F79983DA8291E09E8390EA98879AEFE9
:101BF00099872091720230917302275F3F4F3C8397
:101C00002B838D83C7010E94FB0C49E050E0B80193
:101C100080E00E94060D0E94C40B9BC0C7010E9479
:101C2000FB0C0E940010BE016B5E7F4F0E94A20F52
:101C3000009719F00CF08DC090C081E0D8120EC052
:101C40008B8D9C8D089719F481E080936F028091B1
:101C50006F0281112FC065EA71E031C0E3E0DE124E
:101C60007CC08F89882349F1823029F440E860E103
:101C700083EC91E01CC0813029F440E86BE087EBF5
:101C800091E015C0833009F068C00E9400108E01F9
:101C90000F5F1F4FB8010E94C10FF8010190002093
:101CA000E9F73197E01BF10B40E06E2FC8010E946D
:101CB000640B4DC063E971E002C064ED71E0611531
:101CC000710509F44AC0FB01449150E080E80E948C
:101CD000060D3FC0273009F440C0283021F481E0D0
:101CE0008093F10036C02930A1F53370B1F5E3E1FE
:101CF000F1E081E021E036E39081992361F0809367
:101D0000E9002093EB0091919093EC003093ED006B
:101D10008F5F873089F78EE78093EA001092EA00A0
:101D20008F898093760215C08B8D9C8D0E94FB0C51
:101D3000898D811105C0CE0145960E948B0807C090
:101D40000E940010BE016B5E7F4F0E94E00F88234F
:101D500021F08EEF8093E80003C081E28093EB00D6
:101D60006C960FB6F894DEBF0FBECDBFDF91CF915A
:101D7000FF91EF91BF91AF919F918F917F916F9163
:101D80005F914F913F912F911F910F91FF90EF9095
:101D9000DF900F900FBE0F901F9018958093E90071
:101DA0008091F200882319F08AE38093E800089577
:101DB0001F920F920FB60F9211242F933F934F93C0
:101DC0005F936F937F938F939F93AF93BF93CF93C3
:101DD000EF93FF93C091E1008091E100837F8093B6
:101DE000E1008093E100C3FF0FC01092E90081E0A1
:101DF0008093EB001092EC0082E38093ED00109250
:101E0000760288E08093F000C2FF19C083E00E9450
:101E1000CE0E80917802882339F08091780281502B
:101E200080937802882389F180917702882339F0A2
:101E300080917702815080937702882341F1C4FF1B
:101E400010C08091E2008E7E81608093E2008091DC
:101E5000E1008F7E8093E100809174028E7E80612C
:101E600011C0C0FF16C08091E2008E7E8061809319
:101E7000E2008091E1008E7E8093E1008091740207
:101E80008E7E81608093740204C05D9ACDCF289AC3
:101E9000D6CFFF91EF91CF91BF91AF919F918F914D
:101EA0007F916F915F914F913F912F910F900FBE56
:101EB0000F901F9018951092760210927502109252
:101EC00074020E94A10B8091E1008E7E8093E1005C
:101ED0008DE08093E200559A209AEEEFFFE785911E
:101EE00094918B3F9C4D19F481E080936D0208958D
:101EF0000895EF92FF920F931F93CF93DF937B018F
:101F0000FC01C281D38100E010E0209781F0E881DC
:101F1000F9810280F381E02DB701CE01099597FD8B
:101F200008C0080F191F0884D985C02DEECFC8013D
:101F300002C08FEF9FEFDF91CF911F910F91FF9024
:101F4000EF9008950F931F93CF93DF938B01FC01C4
:101F5000C281D381209771F0E881F9810480F581F5
:101F6000E02DB801CE010995009731F40884D98598
:101F7000C02DF0CF80E090E0DF91CF911F910F91C5
:101F800008950F931F93CF93DF938B01FC01C281C0
:101F9000D381209771F0E881F9810680F781E02DE7
:101FA000B801CE010995080F111D0884D985C02DEF
:101FB000F0CFF8011082DF91CF911F910F9108951A
:101FC0000F931F93CF93DF938B01FC01C281D381C9
:101FD000209771F0E881F9810190F081E02DB8013E
:101FE000CE010995811106C00884D985C02DF0CF96
:101FF00080E001C081E0DF91CF911F910F910895A2
:1020000080917D0281110DC082E08093790284E08D
:1020100080937A0210927C0210927B0281E080937E
:102020007D0289E792E008955058BB27AA270ED079
:1020300075C166D130F06BD120F031F49F3F11F4BF
:102040001EF45BC10EF4E095E7FB51C1E92F77D197
:1020500080F3BA17620773078407950718F071F4C5
:102060009EF58FC10EF4E0950B2EBA2FA02D0B011B
:10207000B90190010C01CA01A0011124FF27591BCD
:1020800099F0593F50F4503E68F11A16F040A22FD3
:10209000232F342F4427585FF3CF46953795279544
:1020A000A795F0405395C9F77EF41F16BA0B620B43
:1020B000730B840BBAF09150A1F0FF0FBB1F661F8A
:1020C000771F881FC2F70EC0BA0F621F731F841FCD
:1020D00048F4879577956795B795F7959E3F08F0F3
:1020E000B3CF9395880F08F09927EE0F97958795B2
:1020F0000895D9D008F481E008950CD00FC107D11C
:1021000040F0FED030F021F45F3F19F0F0C05111E3
:1021100039C1F3C014D198F39923C9F35523B1F30E
:10212000951B550BBB27AA2762177307840738F046
:102130009F5F5F4F220F331F441FAA1FA9F333D0A5
:102140000E2E3AF0E0E830D091505040E695001C59
:10215000CAF729D0FE2F27D0660F771F881FBB1F15
:10216000261737074807AB07B0E809F0BB0B802DEF
:10217000BF01FF2793585F4F2AF09E3F510568F03B
:10218000B6C000C15F3FECF3983EDCF386957795CF
:102190006795B795F7959F5FC9F7880F911D96953D
:1021A000879597F90895E1E0660F771F881FBB1F99
:1021B000621773078407BA0720F0621B730B840B46
:1021C000BA0BEE1F88F7E095089504D06894B1111A
:1021D000D9C00895BCD088F09F5790F0B92F9927A7
:1021E000B751A0F0D1F0660F771F881F991F1AF022
:1021F000BA95C9F712C0B13081F0C3D0B1E00895EB
:10220000C0C0672F782F8827B85F39F0B93FCCF36B
:10221000869577956795B395D9F73EF49095809517
:10222000709561957F4F8F4F9F4F0895E89409C037
:1022300097FB3EF490958095709561957F4F8F4FF9
:102240009F4F9923A9F0F92F96E9BB279395F6950F
:10225000879577956795B795F111F8CFFAF4BB0F8D
:1022600011F460FF1BC06F5F7F4F8F4F9F4F16C0F1
:10227000882311F096E911C0772321F09EE8872F7B
:10228000762F05C0662371F096E8862F70E060E037
:102290002AF09A95660F771F881FDAF7880F9695B0
:1022A000879597F90895990F0008550FAA0BE0E854
:1022B000FEEF16161706E807F907C0F01216130608
:1022C000E407F50798F0621B730B840B950B39F448
:1022D0000A2661F0232B242B252B21F408950A26AE
:1022E00009F4A140A6958FEF811D811D089597F9EE
:1022F0009F6780E870E060E008959FEF80EC0895AC
:1023000000240A94161617061806090608950024D4
:102310000A9412161306140605060895092E03944E
:10232000000C11F4882352F0BB0F40F4BF2B11F4C2
:1023300060FF04C06F5F7F4F8F4F9F4F089557FD21
:102340009058440F551F59F05F3F71F04795880F23
:1023500097FB991F61F09F3F79F0879508951216BA
:1023600013061406551FF2CF4695F1DF08C0161666
:1023700017061806991FF1CF869571056105089417
:102380000895E894BB2766277727CB0197F908952E
:102390008ADF08F48FEF08950BD0C0CFB1DF28F0AB
:1023A000B6DF18F0952309F0A2CFA7CF1124EACF0A
:1023B000C6DFA0F3959FD1F3950F50E0551F629FA4
:1023C000F001729FBB27F00DB11D639FAA27F00D8E
:1023D000B11DAA1F649F6627B00DA11D661F829FB5
:1023E0002227B00DA11D621F739FB00DA11D621F9A
:1023F000839FA00D611D221F749F3327A00D611DB7
:10240000231F849F600D211D822F762F6A2F112498
:102410009F5750408AF0E1F088234AF0EE0FFF1FEB
:10242000BB1F661F771F881F91505040A9F79E3F22
:10243000510570F05CCFA6CF5F3FECF3983EDCF324
:10244000869577956795B795F795E7959F5FC1F75F
:10245000FE2B880F911D9695879597F9089523DF98
:10246000880B990B0895A1E21A2EAA1BBB1BFD0134
:102470000DC0AA1FBB1FEE1FFF1FA217B307E40763
:10248000F50720F0A21BB30BE40BF50B661F771FBB
:10249000881F991F1A9469F760957095809590959B
:1024A0009B01AC01BD01CF010895EE0FFF1F059008
:0A24B000F491E02D0994F894FFCF99
:1024BA000100804FC347FFFFFFFF00E1000000005B
:1024CA00000000C180810000002000564D44505693
:1024DA005F317C315F564D4450560D0A00564D44CB
:1024EA0050435F005F564D4450430D0A00457272D7
:1024FA006F723A20417474656D707420746F207322
:10250A006574206120726561642D6F6E6C79207626
:10251A0061726961626C65206F7220646174612006
:10252A0074797065206E6F7420737570706F727431
:10253A0065640D0A000000000023086A084D085D62
:10254A000839084A086E616E00696E66006F766621
:04255A00002E00004F
:00000001FF
