:100000000C94ED000C9415010C9415010C94150141
:100010000C9415010C9415010C9415010C94150108
:100020000C9415010C9415010C9447100C94D90EE6
:100030000C9415010C9415010C9415010C941501E8
:100040000C9415010C9415010C9415010C941501D8
:100050000C9415010C9415010C9415010C949A073D
:100060000C9415010C9415010C9415010C941501B8
:100070000C9415010C9415010C9415010C941501A8
:100080000C9415010C9415010C9415010C94150198
:100090000C9415010C9415010C9415010C94150188
:1000A0000C9415010C9477060C941501BB08BE083E
:1000B000AD08B108B708DF08DF08DF08C208C608C6
:1000C000CA08D008D408DF08DA08000000020009D6
:1000D0000F0000030401000C0000000000000000FD
:1000E0000000000000000000000408020110408031
:1000F000401020408040800802040180402010020F
:10010000011080102040402004040404040304056E
:1001100002020202040302020202060606060606A4
:100120000404020202040400000000230026002947
:10013000002C002F0000000000250028002B002EBE
:1001400000310000000000240027002A002D0030AC
:1001500000080B0002020201000904000001020273
:1001600000000524001001052401010104240206F9
:100170000524060001070581031000400904010061
:10018000020A000000070502024000000705830282
:1001900040000012010002EF0201404123368000BE
:1001A0000101020301120100020000004041233658
:1001B0008000010102030141726475696E6F204C79
:1001C0004C430041726475696E6F204C656F6E61BF
:1001D00072646F0004030904AA0A11241FBECFEF42
:1001E000DAE0DEBFCDBF11E0A0E0B1E0E8E9F7E280
:1001F00002C005900D92A83BB107D9F722E0A8EB09
:10020000B1E001C01D92AF39B207E1F711E0CAEDCC
:10021000D1E004C02297FE010E94C613C83DD10759
:10022000C9F70E94C80A0C94CA130C940000CF921C
:10023000DF92EF92FF920F931F93E82FF92F05C0E3
:10024000015011092109310961F190819623941718
:10025000B9F305C0015011092109310911F190814B
:1002600096239413F7CFC12CD12CE12CF12C0AC08A
:100270008FEFC81AD80AE80AF80A0C151D052E05D2
:100280003F0579F080818623841791F36C2D7D2DB5
:100290008E2D9F2D1F910F91FF90EF90DF90CF90AB
:1002A000089560E070E080E090E01F910F91FF9072
:1002B000EF90DF90CF9008956F927F928F929F92F0
:1002C000AF92BF92CF92DF92EF92FF920F931F9364
:1002D000CF93DF935C018B01C0E0D0E0612C80E51F
:1002E000782E93EC892E27E4922ECA15DB05A4F410
:1002F000F801C190D190E190F1908F01A701960192
:10030000B301C4010E94E81187FF02C063017401B8
:10031000219636014701E9CFB301C401DF91CF91A6
:100320001F910F91FF90EF90DF90CF90BF90AF9013
:100330009F908F907F906F900895CF93DF93CAED39
:10034000D1E0499159916991799122E030E087E3B8
:1003500092E00E94960C6DE171E087E392E00E94CA
:10036000F10A81E0CA3ED80761F761E271E087E3F4
:1003700092E00E94F10A6AED71E084E090E00E9450
:100380005C01AB01BC0122E030E087E392E00E9417
:10039000960C6BE271E087E392E00E94F10A4091D3
:1003A000CE015091CF016091D0017091D1012AE02E
:1003B00030E087E392E00E94970B87E392E0DF91C1
:1003C000CF910C94FA0A8F929F92AF92BF92CF92E4
:1003D000DF92EF92FF920F931F93CF93DF93082F3B
:1003E000CAEDD1E014E030E8832E3FE4932E33ECE5
:1003F000A32E37E4B32E60E082E00E9419090E9428
:10040000E4076093D2017093D3018093D401909359
:10041000D5010E94E407C090D201D090D301E090B2
:10042000D401F090D5016C197D098E099F096230C5
:1004300071058105910568F361E082E00E94190968
:100440000E94E4076093D2017093D3018093D4019A
:100450009093D5010E94E407C090D201D090D301BF
:10046000E090D401F090D5016C197D098E099F09A7
:100470006A3071058105910568F360E082E00E94B1
:10048000190920E930ED43E050E061E0812F0E943E
:1004900078090E94851220E030E048E652E40E948C
:1004A000EC116B017C016093D6017093D7018093AE
:1004B000D8019093D90120E030E0A9010E94E81111
:1004C000811105C088829982AA82BB8204C0C88239
:1004D000D982EA82FB8224961F5F183009F08BCF05
:1004E000002371F0DF91CF911F910F91FF90EF905A
:1004F000DF90CF90BF90AF909F908F900C949D0114
:10050000DF91CF911F910F91FF90EF90DF90CF90EF
:10051000BF90AF909F908F90089561E08DE00E9412
:10052000190960E08CE00C94190961E08CE00E94EC
:10053000190960E08DE00C94190960E08CE00E94DC
:10054000190960E08DE00C941909CF93DF930E94A4
:1005500029068091C4019091C501019719F58091F8
:100560000401909105010197E9F48091BE019091F9
:10057000BF01892B19F00E949D0259C08091CE01C4
:100580009091CF01A091D001B091D1018093CA0187
:100590009093CB01A093CC01B093CD011092C501F3
:1005A0001092C401C091BC01D091BD01C130D105F0
:1005B00009F041C08091C0019091C101892BC9F01F
:1005C0008091BA019091BB0101969093BB018093F9
:1005D000BA012091020130910301281739075CF517
:1005E0001092C1011092C0011092BB011092BA0189
:1005F00022C00E949D028091B8019091B90101969C
:100600009093B9018093B8012091000130910101CC
:100610002817390764F4D093C101C093C001109228
:10062000B9011092B801D0930501C0930401DF9184
:10063000CF910C94160680910401909105010197C9
:1006400099F482E090E090930501809304010E9468
:100650009D020E948D026091CA017091CB01809130
:10066000CC019091CD011CC081E090E090930501F8
:10067000809304010E949D020E9495026091CA012C
:100680007091CB018091CC019091CD010E94851297
:1006900025E733E940E85FE30E943B130E945912CB
:1006A00045EA52E00E94DE05C2CF8BE00E944F096E
:1006B000019739F081E00E944F09019709F042C08B
:1006C00021C06AE070E080E090E00E9413088BE0B7
:1006D0000E944F09019781F40E9429061092C301DC
:1006E0001092C2010E948D0262E370E080E090E00F
:1006F0000E9413080E949D028BE00E944F090197FF
:10070000D9F3D8CF6AE070E080E090E00E9413084F
:1007100081E00E944F09019781F40E9429061092FE
:10072000C3011092C2010E94950262E370E080E072
:1007300090E00E9413080E949D0281E00E944F09F0
:100740000197D9F38AE00E944F09019791F46AE07A
:1007500070E080E090E00E9413088AE00E944F0958
:10076000019711F40E9416068AE00E944F09019732
:10077000D9F389E00E944F09019789F46AE070E09B
:1007800080E090E00E94130889E00E944F098130C8
:10079000910561F089E00E944F090197D9F388E043
:1007A0000E944F09019709F08FC06EC04091CE01A1
:1007B0005091CF016091D0017091D101473C51051A
:1007C0006105710589F41092BD011092BC0110926F
:1007D000BB011092BA011092B9011092B80184EFD6
:1007E00091E0A0E0B0E041C0443F21E05207610544
:1007F0007105C9F48CEB92E0A0E0B0E08093CE01EB
:100800009093CF01A093D001B093D1011092BD017C
:100810001092BC011092BB011092BA011092B90162
:100820001092B8012AC04C3B52406105710569F431
:100830009093BD018093BC019093C1018093C0014E
:1008400088EC90E0A0E0B0E010C01092BD011092E2
:10085000BC011092BB011092BA011092B901109222
:10086000B80187EC90E0A0E0B0E08093CE019093D7
:10087000CF01A093D001B093D10181E090E090939B
:10088000C5018093C40186CF6AE070E080E090E00B
:100890000E94130888E00E944F098130910579F485
:1008A0002091C2013091C301232B29F49093C301FD
:1008B0008093C20104C01092C3011092C20188E06B
:1008C0000E944F090197D9F308958F929F92AF929A
:1008D000BF92CF92DF92EF92FF920E94E407C09006
:1008E000C601D090C701E090C801F090C9016C1911
:1008F0007D098E099F09683E73408105910508F4C2
:10090000C8C00E94E4076093C6017093C70180933A
:10091000C8019093C9018090060190900701A090B2
:100920000801B090090120E030E040EA52E4C5013E
:10093000B4010E94E811C090CA01D090CB01E090B0
:10094000CC01F090CD0187FF1EC087ECC816D10402
:10095000E104F10409F49DC021E030E03093C501C9
:100960002093C40187EC90E0A0E0B0E08093CE013A
:100970009093CF01A093D001B093D1013093BF01E8
:100980002093BE0128C020E030E046E153E4C501D9
:10099000B4010E94E81187FF2BC024EFC21621E0AA
:1009A000D206E104F10409F474C081E090E0909370
:1009B000C5018093C40184EF91E0A0E0B0E0809392
:1009C000CE019093CF01A093D001B093D1011092AA
:1009D000BF011092BE011092BD011092BC01109295
:1009E000BB011092BA011092B9011092B80151C026
:1009F00020E030E04AE753E4C501B4010E94E81169
:100A000087FF23C08CEBC81682E0D806E104F1040E
:100A100009F43FC083E090E09093C5018093C40146
:100A20008CEB92E0A0E0B0E08093CE019093CF01F8
:100A3000A093D001B093D1011092BD011092BC01DE
:100A40001092BF011092BE01CACF28ECC216D10489
:100A5000E104F104F1F081E090E09093BD01809316
:100A6000BC011092BF011092BE019093C10180930E
:100A7000C0019093C5018093C40188EC90E0A0E090
:100A8000B0E08093CE019093CF01A093D001B093BA
:100A9000D101FF90EF90DF90CF90BF90AF909F90EB
:100AA0008F900895CF9340ED57E060E070E087EFBE
:100AB00091E00E940D0720E032EC41E050E067E356
:100AC00072E087EF91E00E94C60687EF91E00E94F6
:100AD000C30660E371E080912802909129020E9490
:100AE000F10A6AE070E080E090E00E94130841E0C3
:100AF00060E087EF91E00E947F07C4E060E08C2F08
:100B00000E94E008CF5FC830C9F761E082E00E9430
:100B1000E00861E08CE00E94E00861E08DE00E9466
:100B2000E00860E08BE00E94E00860E08AE00E945C
:100B3000E00860E089E00E94E00860E088E00E9450
:100B4000E00860E081E00E94E00887EC90E0A0E02F
:100B5000B0E08093CE019093CF01A093D001B093E9
:100B6000D1018093CA019093CB01A093CC01B093A3
:100B7000CD0145EA52E067EC70E080E090E0CF9173
:100B80000C94DE050E94550381E00E94E3018091F0
:100B9000C2019091C301019781F46AED71E084E094
:100BA00090E00E945C0160930601709307018093BE
:100BB0000801909309010C9465040895611571056D
:100BC0008105910569F481E090E0A0E0B0E08093B8
:100BD000F3019093F401A093F501B093F60108C0DE
:100BE0006093F3017093F4018093F5019093F60103
:100BF0005093F2014093F1011092C1001092C00095
:100C00001092C2001092C3001092C40088E4809336
:100C1000C1008CE790E09093EB018093EA01809112
:100C2000EA019091EB018093D10008951092ED01BB
:100C30001092EE011092EF011092F0011092EC016F
:100C400084E089BB1092BF001092BE0080937200B6
:100C500008951092720008958091ED019091EE0137
:100C6000A091EF01B091F0010196A11DB11D8093FB
:100C7000ED019093EE01A093EF01B093F00180910C
:100C8000ED019091EE01A091EF01B091F001409142
:100C9000F3015091F4016091F5017091F601841710
:100CA0009507A607B70710F18091EC0181111EC0CE
:100CB00081E08093EC018091ED019091EE01A09193
:100CC000EF01B091F001841B950BA60BB70B80933D
:100CD000ED019093EE01A093EF01B093F001E0914C
:100CE000F101F091F20109951092EC0108951F9223
:100CF0000F920FB60F9211242F933F934F935F9350
:100D00006F937F938F939F93AF93BF93EF93FF93D3
:100D10000E942C06FF91EF91BF91AF919F918F910F
:100D20007F916F915F914F913F912F910F900FBEE7
:100D30000F901F9018950F931F93CF93DF93EC01A3
:100D4000662359F00E94E40769837A838B839C832E
:100D5000DF91CF911F910F9108950E94E4070981BF
:100D60001A812B813C81601B710B820B930B6233C8
:100D700071058105910530F763E070E080E090E057
:100D80000E941308EACF60E00C949B06CF92DF929A
:100D9000EF92FF920F931F93CF93DF9300D000D079
:100DA000CDB7DEB78C017B01FC0172AB61AB8BE18F
:100DB000C82ED12CC70129833A834B835C830E94C0
:100DC0009B0A29813A814B815C81811113C0F1E03A
:100DD000CF1AD10879F064E670E080E090E02983D2
:100DE0003A834B835C830E9413085C814B813A8178
:100DF0002981E0CFBA01A901F80181A992A90F9038
:100E00000F900F900F90DF91CF911F910F91FF9056
:100E1000EF90DF90CF900C94950AFC0113AA14AACE
:100E200015AA16AA11821282138214824115510545
:100E30006105710521F0CB01BA010C9413080895E6
:100E40001F93CF93DF93EC01162F62E471E089A921
:100E50009AA90E94F10A4AE050E0612F89A99AA953
:100E60000E94A40B69E471E089A99AA90E94F10A81
:100E700062E370E080E090E0DF91CF911F910C94ED
:100E800013081F93CF93DF93EC01162F8D818823D6
:100E900089F189A99AA9DC01ED91FC910480F58181
:100EA000E02D0995892BA9F307C02637310519F1E3
:100EB0002835310509F41D8289A99AA9DC01ED9133
:100EC000FC910480F581E02D09951816190694F41B
:100ED00089A99AA9DC01ED91FC910680F781E02DAA
:100EE00009959C01332723363105F9F6612FCE0190
:100EF0000E94200783E6DF91CF911F9108950F9301
:100F00001F93CF93DF931F92CDB7DEB78C0166237B
:100F100049F081E0F801858360E0C80149830E94BF
:100F200041074981F80145830F90DF91CF911F91CF
:100F30000F9108951F920F920FB60F9211242F93C5
:100F40003F938F939F93AF93BF9380912F02909184
:100F50003002A0913102B091320230912E0223E092
:100F6000230F2D3720F40196A11DB11D05C026E8E1
:100F7000230F0296A11DB11D20932E0280932F02F4
:100F800090933002A0933102B093320280913302E9
:100F900090913402A0913502B09136020196A11DC4
:100FA000B11D8093330290933402A0933502B09325
:100FB0003602BF91AF919F918F913F912F910F90EA
:100FC0000FBE0F901F9018952FB7F89460912F02C5
:100FD0007091300280913102909132022FBF0895BA
:100FE0003FB7F8948091330290913402A09135027A
:100FF000B091360226B5A89B05C02F3F19F0019687
:10100000A11DB11D3FBF6627782F892F9A2F620F30
:10101000711D811D911D42E0660F771F881F991F6A
:101020004A95D1F708958F929F92AF92BF92CF9237
:10103000DF92EF92FF926B017C010E94F0074B015F
:101040005C01C114D104E104F104F1F00E94E71045
:101050000E94F007681979098A099B09683E734064
:101060008105910570F321E0C21AD108E108F10869
:1010700088EE880E83E0981EA11CB11CC114D10417
:10108000E104F10429F7DDCFFF90EF90DF90CF90DE
:10109000BF90AF909F908F900895789484B58260B0
:1010A00084BD84B5816084BD85B5826085BD85B50C
:1010B000816085BDEEE6F0E0808181608083E1E8BB
:1010C000F0E01082808182608083808181608083F3
:1010D000E0E8F0E0808181608083E1E9F0E08081F8
:1010E00082608083808181608083E0E9F0E080819C
:1010F00081608083E1ECF0E0808184608083808186
:1011000082608083808181608083E3ECF0E0808175
:1011100081608083E0ECF0E0808182608083E2EC9B
:10112000F0E0808181608083EAE7F0E08081846084
:1011300080838081826080838081816080838081E0
:1011400080688083089590E0FC013197EF30F105CD
:10115000B0F5EA5AFF4F0C94C413809180008F774A
:1011600003C0809180008F7D8093800008958091DE
:101170008000877FF9CF84B58F7702C084B58F7DDB
:1011800084BD0895809190008F7707C08091900072
:101190008F7D03C080919000877F80939000089599
:1011A0008091C0008F7703C08091C0008F7D8093B5
:1011B000C00008958091C200877F8093C200089587
:1011C000CF93DF9390E0FC01E751FF4F2491FC01A6
:1011D000E85FFE4F8491882349F190E0880F991FC2
:1011E000FC01ED5BFE4FA591B4918B5C9E4FFC0121
:1011F000C591D4919FB7611108C0F8948C91209546
:1012000082238C93888182230AC0623051F4F8943F
:101210008C91322F309583238C938881822B888305
:1012200004C0F8948C91822B8C939FBFDF91CF9157
:1012300008950F931F93CF93DF931F92CDB7DEB71F
:10124000282F30E0F901E653FF4F8491F901E7516F
:10125000FF4F1491F901E85FFE4F04910023C9F09C
:10126000882321F069830E94A3086981E02FF0E0C0
:10127000EE0FFF1FEB5CFE4FA591B4919FB7F89462
:101280008C91611103C01095812301C0812B8C9337
:101290009FBF0F90DF91CF911F910F910895CF9332
:1012A000DF93282F30E0F901E653FF4F8491F901D5
:1012B000E751FF4FD491F901E85FFE4FC491CC2371
:1012C00091F081110E94A308EC2FF0E0EE0FFF1FB8
:1012D000E95DFE4FA591B4912C912D2381E090E022
:1012E00021F480E002C080E090E0DF91CF9108958A
:1012F0000F931F93762F90E0FC01E751FF4F64910D
:10130000FC01E85FFE4FE4917111762FF0E0EE0FE3
:10131000FF1FE95DFE4F8591949189019A013F700D
:10132000472F0E941701611571058105910531F064
:101330006F5F7F4F8F4F9F4F9F7003C060E070E0E3
:10134000CB011F910F910895CF93DF931F92CDB7DB
:10135000DEB76983DC01ED91FC910280F381E02D21
:1013600041E050E0BE016F5F7F4F09950F90DF9124
:10137000CF910895CF93DF93EC018C859D8597FFE6
:1013800005C082E00E94A90D9D878C878C859D8574
:10139000DF91CF91089583E00C943D10FC0184858A
:1013A000958597FD06C082E00E94510D90E0019660
:1013B000089582E00E94510D90E00895FC0184851B
:1013C000958597FD05C02FEF3FEF3587248708955A
:1013D00082E00C94A90DCF93DF93EC01809115016D
:1013E000882331F083E00E94DA0D1816190634F0D4
:1013F00081E090E09B838A8380E090E0DF91CF9151
:101400000895FC0120812E5F208342E450E061E5D5
:1014100071E080E80C94750EFC0121818081813A95
:1014200059F4213209F04BC047E050E06EE071E022
:1014300080E00E94750E5EC0813209F040C0233208
:1014400089F4838190E0982F88273281832BA0E054
:10145000B0E080930A0190930B01A0930C01B0932C
:101460000D010FC0203239F467E070E08EE091E0AA
:101470000E94A60E09C0223221F4828180931501B8
:1014800003C02D7F2032B1F580918702811103C006
:10149000E0E0F8E002C0EEEFFAE080910E019091FA
:1014A0000F01A0911001B0911101803B9440A10562
:1014B000B10511F58091150180FF03C01DC080E0CA
:1014C0000895EE3F2AE0F20731F0808191819093F8
:1014D000FF0A8093FE0A87E797E7918380832BE0DA
:1014E00088E190E00FB6F894A895809360000FBE55
:1014F0002093600081E0089588E10FB6F89480930E
:101500006000109260000FBEA895EE3F8AE0F807D9
:1015100039F08091FE0A9091FF0A91838083EACF8F
:101520001092FF0A1092FE0AE5CF2FEF3FEFFC0169
:10153000358724870895CF93C09115016AE070E044
:1015400080E090E00E94130881E0C11101C080E0BA
:10155000CF91089510923A021092390288EE93E0EA
:10156000A0E0B0E080933B0290933C02A0933D0248
:10157000B0933E028EE991E0909338028093370257
:101580008FEF9FEF90934402809343020895089554
:101590000E944D080E94C70A88E892E00E94CA1083
:1015A0000E945205C0E0D0E00E94C2052097E1F3FE
:1015B0000E940000F9CF6115710581F0DB010D90EB
:1015C0000020E9F7AD0141505109461B570BDC01E2
:1015D000ED91FC910280F381E02D099480E090E090
:1015E00008950C94DB0ADC01ED91FC910190F081EF
:1015F000E02D09946FE471E00C94DB0A8F929F92C6
:10160000AF92BF92DF92EF92FF920F931F93CF930F
:10161000DF93CDB7DEB7A1970FB6F894DEBF0FBE4C
:10162000CDBF7C01F42FD52ECB0119A2223008F4B6
:101630002AE08E010F5D1F4F822E912CA12CB12C20
:101640006F2F7D2DA50194010E94A213F22FD32E9E
:10165000CA01015011096A3014F4E0E301C0E7E364
:10166000E60FD801EC93232B242B252B49F7B80147
:10167000C7010E94DB0AA1960FB6F894DEBF0FBE29
:10168000CDBFDF91CF911F910F91FF90EF90DF9031
:10169000BF90AF909F908F900895CF92DF92EF927E
:1016A000FF920F931F93CF93DF93EC016A017B01AD
:1016B0002115310579F4E881F9810190F081E02D5F
:1016C000642FDF91CF911F910F91FF90EF90DF90EA
:1016D000CF9009942A303105E9F477FF1AC06DE202
:1016E0000E94F30A8C0144275527BA014C195D0961
:1016F0006E097F092AE0CE010E94FE0A800F911F29
:10170000DF91CF911F910F91FF90EF90DF90CF90DD
:1017100008952AE0B701A601CE01DF91CF911F9174
:101720000F91FF90EF90DF90CF900C94FE0A21155F
:10173000310541F4DC01ED91FC910190F081E02D47
:10174000642F09940C94FE0A9A01462F50E060E041
:1017500070E00C94970B4F925F926F927F928F92F2
:101760009F92AF92BF92CF92DF92EF92FF920F9330
:101770001F93CF93DF93EC016A017B01B22E9A0194
:10178000AB01C701B6010E949E13882319F06AEAD3
:1017900071E027C026013701E89477F82FEF3FEF7B
:1017A0004FE75FE7C301B2010E949E1381110DC094
:1017B0002FEF3FEF4FE75FE7C301B2010E94E8114F
:1017C00018161CF46EEA71E00CC02FEF3FEF4FE7E4
:1017D0005FE4C701B6010E9437131816ACF462EB40
:1017E00071E0CE01DF91CF911F910F91FF90EF90AB
:1017F000DF90CF90BF90AF909F908F907F906F9031
:101800005F904F900C94DB0A2FEF3FEF4FE75FECB8
:10181000C701B6010E94E81187FDE1CF20E030E06A
:10182000A901C701B6010E94E81187FF0AC06DE255
:10183000CE010E94F30A8C01F7FAF094F7F8F094C5
:1018400002C000E010E0A12C60E070E080E09FE3C7
:10185000AB1441F020E030E040E251E40E94EC1192
:10186000A394F6CF9B01AC01C701B6010E9484117D
:101870006B017C010E9459122B013C010E948512D0
:101880009B01AC01C701B6010E9483116B017C0171
:101890002AE0B301A201CE010E94FE0A080F191F1F
:1018A000BB2039F066EB71E0CE010E94DB0A080F25
:1018B000191F7B2C772041F120E030E040E251E419
:1018C000C701B6010E943B136B017C010E945412B8
:1018D0004B01AA2497FCA094BA2C2AE030E0B50171
:1018E000A401CE010E944D0B080F191FC501B401C0
:1018F0000E9487129B01AC01C701B6010E948311AF
:101900006B017C017A94D6CFC801DF91CF911F91F2
:101910000F91FF90EF90DF90CF90BF90AF909F908E
:101920008F907F906F905F904F9008950C94AB0BC9
:10193000615030F02091F100FC0120830196F8CF36
:10194000289884E680939102089540918C025091EA
:101950008D0220918A0230918B0242175307B4F412
:101960009091E8009570E1F39091E80092FD19C024
:101970008093F10080918C0290918D0201968F737B
:101980009927892B19F48EEF8093E80080918C02BF
:1019900090918D02019690938D0280938C0281E04C
:1019A000089580E00895CF92DF92EF92FF920F9317
:1019B0001F93CF93DF931F92CDB7DEB7082F162F5B
:1019C000F42E862F880F8E5F99830E94A50C83E0EA
:1019D0000E94A50CE02EC02E9981D92E8C2D8E1937
:1019E000811798F4F601F7FE02C0849101C080814E
:1019F0000E94A50C082F80E00E94A50C8023FFEF19
:101A0000CF1ADF0A8111EACF01C081E00F90DF9188
:101A1000CF911F910F91FF90EF90DF90CF9008959D
:101A20008091D70081608093D70080EA8093D800AE
:101A300089B5806189BD89B5826089BD09B400FE20
:101A4000FDCF61E070E080E090E00E94130880919B
:101A5000D8008F7C80618093D8008091E000807FE7
:101A60008093E0000895CF93DF931F92CDB7DEB748
:101A70001982CE0101960E94010A0E946F11BE01D7
:101A80006F5F7F4F0E94E81089810F90DF91CF91A7
:101A900008952FB7FC012083F89467706093E900E4
:101AA0000895CF93DF931F92CDB7DEB7682FCE0195
:101AB00001960E94490D8091F20099819FBF0F907D
:101AC000DF91CF910895FF920F931F93CF93DF93F0
:101AD00000D0CDB7DEB7F62E8A01909190029923FF
:101AE00011F057FF03C08FEF9FEF2BC0682FCE017F
:101AF00001967A830E94490D8091F20090E0A8013E
:101B00007A81801791070CF4AC01EF2DF72FF40EBA
:101B100084E6FE1639F02898809391029091F100A6
:101B20009193F7CF4115510521F08091F200882360
:101B300021F089818FBFCA0104C08BE68093E80041
:101B4000F8CF0F900F90DF91CF911F910F91FF90E1
:101B50000895CF93DF931F92CDB7DEB741E050E0F9
:101B6000BE016F5F7F4F0E94630D019719F4898159
:101B700090E002C08FEF9FEF0F90DF91CF9108951B
:101B8000CF93DF931F92CDB7DEB7682FCE010196BA
:101B90000E94490D9091E800892F807295FF04C042
:101BA0009091F20080E4891B99819FBF0F90DF9193
:101BB000CF9108956F927F928F929F92AF92BF9232
:101BC000CF92DF92EF92FF920F931F93CF93DF9309
:101BD0001F92CDB7DEB7782E7B01C42EB52E809133
:101BE0009002882369F0042F152F8AEFD82E872DB5
:101BF0008072982E9AE3A92E872D8074882E11C0AA
:101C00008FEF9FEF57C0872D0E94C00D682E811166
:101C10000CC0DA94A9F361E070E080E090E00E94EB
:101C200013080115110579F73BC0282F30E0021782
:101C300013070CF4602E672DCE0101960E94490D0A
:101C40008091E80085FF29C0262D30E0021B130B90
:101C5000992039F06A948FEF6816B1F01092F10074
:101C6000F9CFF701862D77FE07C0815058F0949187
:101C70009093F1003196F9CF815020F0919190939B
:101C8000F100FACFE20EF31E8091E80085FF0FC04D
:101C90000115110511F481100AC089818FBFC1CFD0
:101CA0005D9884E6809392028C2D9B2D03C0A092B8
:101CB000E800F3CF0F90DF91CF911F910F91FF902C
:101CC000EF90DF90CF90BF90AF909F908F907F90DC
:101CD0006F9008951092E90010928D0210928C027C
:101CE00090938B0280938A020895CF92DF92FF92A5
:101CF0000F931F93CF93DF9300D0CDB7DEB7F82EAD
:101D00008A016B0101151105B1F0F601F7FE02C061
:101D1000849101C0808149835A830E94A50C01509F
:101D20001109FFEFCF1ADF0A49815A818111EACFE9
:101D30008FEF9FEF01C0CA010F900F90DF91CF91FD
:101D40001F910F91FF90DF90CF900895BF92CF9297
:101D5000DF92EF92FF920F931F93CF93DF936C016B
:101D60008B01EB013BEFB32E2097C1F07E01C13414
:101D7000D1051CF020E4E22EF12C8091E80082FFD6
:101D8000FCCFC8018C1B9D0B6E2D8C0D9D1D0E94E0
:101D9000980CB092E800CE19DF09E6CFC801DF91B8
:101DA000CF911F910F91FF90EF90DF90CF90BF9058
:101DB00008951F920F920FB60F921124DF92EF92A7
:101DC000FF920F931F932F933F934F935F936F93C4
:101DD0007F938F939F93AF93BF93EF93FF93CF9393
:101DE000DF93CDB7DEB76C97DEBFCDBF1092E900B1
:101DF0008091E80083FF23C168E0CE0145960E94F0
:101E0000980C82EF8093E8003D8937FF05C08091F0
:101E1000E80080FFFCCF03C08EEF8093E800832FA3
:101E2000807609F0F0C02E894F89D88C21110CC022
:101E3000303829F480918F028093F10002C0109213
:101E4000F1001092F100F4C0842F90E09D29213020
:101E500049F43111EDC0019709F0EAC080918F0279
:101E60008D7F0AC0233059F43111E2C0019709F087
:101E7000DFC080918F02826080938F02D9C02530AD
:101E800041F48091E80080FFFCCF40684093E3007C
:101E9000CFC0263009F08DC0EB8CFC8C22E0D21232
:101EA0002CC080E090E00E946A0E0E94330D99E001
:101EB0008E010F5F1F4FF801292F11922A95E9F724
:101EC0009983DA8291E09E8390EA98879AEF9987C6
:101ED00020918C0230918D02275F3F4F3C832B83F2
:101EE0008D83C7010E946A0E49E050E0B80180E08E
:101EF0000E94750E0E94330D9BC0C7010E946A0E9E
:101F00000E946F11BE016B5E7F4F0E9411110097FE
:101F100019F00CF08DC090C081E0D8120EC08B8DEE
:101F20009C8D089719F481E0809389028091890241
:101F300081112FC065EA71E031C0E3E0DE127CC0A0
:101F40008F89882349F1823029F440E860E183ECED
:101F500091E01CC0813029F440E86BE087EB91E010
:101F600015C0833009F068C00E946F118E010F5FA9
:101F70001F4FB8010E943011F80101900020E9F7CD
:101F80003197E01BF10B40E06E2FC8010E94D30C8B
:101F90004DC063E971E002C064ED71E06115710547
:101FA00009F44AC0FB01449150E080E80E94750E9C
:101FB0003FC0273009F440C0283021F481E08093ED
:101FC000F10036C02930A1F53370B1F5E7E1F1E059
:101FD00081E021E036E39081992361F08093E9006C
:101FE0002093EB0091919093EC003093ED008F5F84
:101FF000873089F78EE78093EA001092EA008F8994
:102000008093900215C08B8D9C8D0E946A0E898DE5
:10201000811105C0CE0145960E940C0A07C00E949E
:102020006F11BE016B5E7F4F0E944F11882321F01C
:102030008EEF8093E80003C081E28093EB006C9602
:102040000FB6F894DEBF0FBECDBFDF91CF91FF91E9
:10205000EF91BF91AF919F918F917F916F915F9120
:102060004F913F912F911F910F91FF90EF90DF9033
:102070000F900FBE0F901F9018958093E9008091EC
:10208000F200882319F08AE38093E80008951F92F4
:102090000F920FB60F9211242F933F934F935F939C
:1020A0006F937F938F939F93AF93BF93CF93EF9350
:1020B000FF93C091E1008091E100837F8093E10074
:1020C0008093E100C3FF0FC01092E90081E080938C
:1020D000EB001092EC0082E38093ED0010929002EE
:1020E00088E08093F000C2FF19C083E00E943D1099
:1020F00080919202882339F08091920281508093DE
:102100009202882389F180919102882339F080918D
:102110009102815080939102882341F1C4FF10C045
:102120008091E2008E7E81608093E2008091E100E8
:102130008F7E8093E10080918E028E7E806111C03F
:10214000C0FF16C08091E2008E7E80618093E20025
:102150008091E1008E7E8093E10080918E028E7EE0
:10216000816080938E0204C05D9ACDCF289AD6CF2D
:10217000FF91EF91CF91BF91AF919F918F917F91FF
:102180006F915F914F913F912F910F900FBE0F90E4
:102190001F9018951092900210928F0210928E024A
:1021A0000E94100D8091E1008E7E8093E1008DE011
:1021B0008093E200559A209AEEEFFFE78591949183
:1021C0008B3F9C4D19F481E0809387020895089518
:1021D000EF92FF920F931F93CF93DF937B01FC014C
:1021E000C281D38100E010E0209781F0E881F9817D
:1021F0000280F381E02DB701CE01099597FD08C05B
:10220000080F191F0884D985C02DEECFC80102C060
:102210008FEF9FEFDF91CF911F910F91FF90EF9084
:1022200008950F931F93CF93DF938B01FC01C2811D
:10223000D381209771F0E881F9810480F581E02D48
:10224000B801CE010995009731F40884D985C02DD5
:10225000F0CF80E090E0DF91CF911F910F91089532
:102260000F931F93CF93DF938B01FC01C281D38126
:10227000209771F0E881F9810680F781E02DB8019F
:10228000CE010995080F111D0884D985C02DF0CF06
:10229000F8011082DF91CF911F910F9108950F9354
:1022A0001F93CF93DF938B01FC01C281D3812097D1
:1022B00071F0E881F9810190F081E02DB801CE0143
:1022C0000995811106C00884D985C02DF0CF80E022
:1022D00001C081E0DF91CF911F910F91089580910E
:1022E000970281110DC082E08093930284E0809375
:1022F0009402109296021092950281E080939702C8
:1023000083E992E008955058BB27AA270ED075C1E3
:1023100066D130F06BD120F031F49F3F11F41EF400
:102320005BC10EF4E095E7FB51C1E92F77D180F353
:10233000BA17620773078407950718F071F49EF5C2
:102340008FC10EF4E0950B2EBA2FA02D0B01B90111
:1023500090010C01CA01A0011124FF27591B99F01B
:10236000593F50F4503E68F11A16F040A22F232F27
:10237000342F4427585FF3CF469537952795A79577
:10238000F0405395C9F77EF41F16BA0B620B730B1E
:10239000840BBAF09150A1F0FF0FBB1F661F771F8F
:1023A000881FC2F70EC0BA0F621F731F841F48F444
:1023B000879577956795B795F7959E3F08F0B3CFCA
:1023C0009395880F08F09927EE0F979587950895B4
:1023D000D9D008F481E008950CD00FC107D140F0A6
:1023E000FED030F021F45F3F19F0F0C0511139C137
:1023F000F3C014D198F39923C9F35523B1F3951B76
:10240000550BBB27AA2762177307840738F09F5F15
:102410005F4F220F331F441FAA1FA9F333D00E2E84
:102420003AF0E0E830D091505040E695001CCAF7F1
:1024300029D0FE2F27D0660F771F881FBB1F2617B6
:1024400037074807AB07B0E809F0BB0B802DBF0189
:10245000FF2793585F4F2AF09E3F510568F0B6C0A2
:1024600000C15F3FECF3983EDCF386957795679566
:10247000B795F7959F5FC9F7880F911D969587953A
:1024800097F90895E1E0660F771F881FBB1F621759
:1024900073078407BA0720F0621B730B840BBA0B17
:1024A000EE1F88F7E095089504D06894B111D9C063
:1024B0000895BCD088F09F5790F0B92F9927B75155
:1024C000A0F0D1F0660F771F881F991F1AF0BA95F8
:1024D000C9F712C0B13081F0C3D0B1E00895C0C0D7
:1024E000672F782F8827B85F39F0B93FCCF38695EE
:1024F00077956795B395D9F73EF49095809570954B
:1025000061957F4F8F4F9F4F0895E89409C097FBC7
:102510003EF490958095709561957F4F8F4F9F4FBA
:102520009923A9F0F92F96E9BB279395F6958795FE
:1025300077956795B795F111F8CFFAF4BB0F11F4C1
:1025400060FF1BC06F5F7F4F8F4F9F4F16C0882368
:1025500011F096E911C0772321F09EE8872F762F9E
:1025600005C0662371F096E8862F70E060E02AF0DF
:102570009A95660F771F881FDAF7880F96958795CB
:1025800097F90895990F0008550FAA0BE0E8FEEFA0
:1025900016161706E807F907C0F012161306E40727
:1025A000F50798F0621B730B840B950B39F40A2620
:1025B00061F0232B242B252B21F408950A2609F4FE
:1025C000A140A6958FEF811D811D089597F99F6702
:1025D00080E870E060E008959FEF80EC08950024AB
:1025E0000A941616170618060906089500240A9478
:1025F00012161306140605060895092E0394000CFE
:1026000011F4882352F0BB0F40F4BF2B11F460FF8C
:1026100004C06F5F7F4F8F4F9F4F089557FD9058B5
:10262000440F551F59F05F3F71F04795880F97FB96
:10263000991F61F09F3F79F0879508951216130650
:102640001406551FF2CF4695F1DF08C0161617067F
:102650001806991FF1CF86957105610508940895B4
:10266000E894BB2766277727CB0197F908958ADF7F
:1026700008F48FEF08950BD0C0CFB1DF28F0B6DF9C
:1026800018F0952309F0A2CFA7CF1124EACFC6DF17
:10269000A0F3959FD1F3950F50E0551F629FF00175
:1026A000729FBB27F00DB11D639FAA27F00DB11DCE
:1026B000AA1F649F6627B00DA11D661F829F222757
:1026C000B00DA11D621F739FB00DA11D621F839FDE
:1026D000A00D611D221F749F3327A00D611D231FB4
:1026E000849F600D211D822F762F6A2F11249F5702
:1026F00050408AF0E1F088234AF0EE0FFF1FBB1F25
:10270000661F771F881F91505040A9F79E3F5105C3
:1027100070F05CCFA6CF5F3FECF3983EDCF386957C
:1027200077956795B795F795E7959F5FC1F7FE2B6E
:10273000880F911D9695879597F9089523DF880B4B
:10274000990B0895A1E21A2EAA1BBB1BFD010DC017
:10275000AA1FBB1FEE1FFF1FA217B307E407F50751
:1027600020F0A21BB30BE40BF50B661F771F881F2D
:10277000991F1A9469F760957095809590959B01C3
:10278000AC01BD01CF010895EE0FFF1F0590F4913C
:08279000E02D0994F894FFCF3D
:10279800080007000100804FC347FFFFFFFF00E16B
:1027A80000000000000000C18081000000636D206F
:1027B800004D494E206973207E20007E20636D0005
:1027C800564D4450565F317C315F564D4450560D3E
:1027D8000A00564D4450435F005F564D4450430D28
:1027E8000A004572726F723A20417474656D707494
:1027F80020746F20736574206120726561642D6F89
:102808006E6C79207661726961626C65206F7220E6
:10281800646174612074797065206E6F74207375BB
:1028280070706F727465640D0A0000000000A409DE
:10283800EB09CE09DE09BA09CB096E616E00696E33
:0828480066006F7666002E00A9
:00000001FF
